{
  "contractName": "DosAttackLogger",
  "abi": [
    {
      "constant": true,
      "inputs": [],
      "name": "attackCount",
      "outputs": [
        {
          "name": "",
          "type": "uint256"
        }
      ],
      "payable": false,
      "stateMutability": "view",
      "type": "function",
      "signature": "0x407c2821"
    },
    {
      "constant": true,
      "inputs": [
        {
          "name": "",
          "type": "uint256"
        }
      ],
      "name": "attacks",
      "outputs": [
        {
          "name": "id",
          "type": "uint256"
        },
        {
          "name": "sourceIP",
          "type": "string"
        },
        {
          "name": "targetService",
          "type": "string"
        },
        {
          "name": "timestamp",
          "type": "uint256"
        },
        {
          "name": "attackType",
          "type": "uint8"
        },
        {
          "name": "trafficVolume",
          "type": "uint256"
        },
        {
          "name": "duration",
          "type": "uint256"
        },
        {
          "name": "additionalInfo",
          "type": "string"
        },
        {
          "name": "status",
          "type": "uint8"
        }
      ],
      "payable": false,
      "stateMutability": "view",
      "type": "function",
      "signature": "0xd78b1d39"
    },
    {
      "inputs": [],
      "payable": false,
      "stateMutability": "nonpayable",
      "type": "constructor",
      "signature": "constructor"
    },
    {
      "anonymous": false,
      "inputs": [
        {
          "indexed": false,
          "name": "id",
          "type": "uint256"
        },
        {
          "indexed": false,
          "name": "sourceIP",
          "type": "string"
        },
        {
          "indexed": false,
          "name": "targetService",
          "type": "string"
        },
        {
          "indexed": false,
          "name": "timestamp",
          "type": "uint256"
        }
      ],
      "name": "AttackLogged",
      "type": "event",
      "signature": "0x2d87a11466d2b32bb7f226e783241828fbd62100d601c1320bfdfb85a918ab8d"
    },
    {
      "anonymous": false,
      "inputs": [
        {
          "indexed": false,
          "name": "id",
          "type": "uint256"
        },
        {
          "indexed": false,
          "name": "newStatus",
          "type": "uint8"
        }
      ],
      "name": "AttackStatusUpdated",
      "type": "event",
      "signature": "0x6be18a5036c183d3a0fa6d621a9077e4d3e598f13fe3d39a640a4572bafb29fa"
    },
    {
      "constant": false,
      "inputs": [
        {
          "name": "_sourceIP",
          "type": "string"
        },
        {
          "name": "_targetService",
          "type": "string"
        },
        {
          "name": "_timestamp",
          "type": "uint256"
        },
        {
          "name": "_attackType",
          "type": "uint256"
        },
        {
          "name": "_trafficVolume",
          "type": "uint256"
        },
        {
          "name": "_duration",
          "type": "uint256"
        },
        {
          "name": "_additionalInfo",
          "type": "string"
        }
      ],
      "name": "logAttack",
      "outputs": [],
      "payable": false,
      "stateMutability": "nonpayable",
      "type": "function",
      "signature": "0x5d077b66"
    },
    {
      "constant": false,
      "inputs": [
        {
          "name": "_id",
          "type": "uint256"
        },
        {
          "name": "_newStatus",
          "type": "uint256"
        }
      ],
      "name": "updateAttackStatus",
      "outputs": [],
      "payable": false,
      "stateMutability": "nonpayable",
      "type": "function",
      "signature": "0x3669c953"
    },
    {
      "constant": true,
      "inputs": [
        {
          "name": "_id",
          "type": "uint256"
        }
      ],
      "name": "getAttack",
      "outputs": [
        {
          "name": "id",
          "type": "uint256"
        },
        {
          "name": "sourceIP",
          "type": "string"
        },
        {
          "name": "targetService",
          "type": "string"
        },
        {
          "name": "timestamp",
          "type": "uint256"
        },
        {
          "name": "attackType",
          "type": "uint256"
        },
        {
          "name": "trafficVolume",
          "type": "uint256"
        },
        {
          "name": "duration",
          "type": "uint256"
        },
        {
          "name": "additionalInfo",
          "type": "string"
        },
        {
          "name": "status",
          "type": "uint256"
        }
      ],
      "payable": false,
      "stateMutability": "view",
      "type": "function",
      "signature": "0xcff840f0"
    }
  ],
  "bytecode": "0x60806040526000805534801561001457600080fd5b50610f33806100246000396000f3fe60806040526004361061006c5763ffffffff7c01000000000000000000000000000000000000000000000000000000006000350416633669c9538114610071578063407c2821146100a35780635d077b66146100ca578063cff840f0146102a3578063d78b1d391461043b575b600080fd5b34801561007d57600080fd5b506100a16004803603604081101561009457600080fd5b50803590602001356104e9565b005b3480156100af57600080fd5b506100b8610670565b60408051918252519081900360200190f35b3480156100d657600080fd5b506100a1600480360360e08110156100ed57600080fd5b81019060208101813564010000000081111561010857600080fd5b82018360208201111561011a57600080fd5b8035906020019184600183028401116401000000008311171561013c57600080fd5b91908080601f016020809104026020016040519081016040528093929190818152602001838380828437600092019190915250929594936020810193503591505064010000000081111561018f57600080fd5b8201836020820111156101a157600080fd5b803590602001918460018302840111640100000000831117156101c357600080fd5b91908080601f016020809104026020016040519081016040528093929190818152602001838380828437600092019190915250929584359560208601359560408101359550606081013594509192509060a08101906080013564010000000081111561022e57600080fd5b82018360208201111561024057600080fd5b8035906020019184600183028401116401000000008311171561026257600080fd5b91908080601f016020809104026020016040519081016040528093929190818152602001838380828437600092019190915250929550610676945050505050565b3480156102af57600080fd5b506102cd600480360360208110156102c657600080fd5b50356108c2565b604051808a815260200180602001806020018981526020018881526020018781526020018681526020018060200185815260200184810384528c818151815260200191508051906020019080838360005b8381101561033657818101518382015260200161031e565b50505050905090810190601f1680156103635780820380516001836020036101000a031916815260200191505b5084810383528b5181528b516020918201918d019080838360005b8381101561039657818101518382015260200161037e565b50505050905090810190601f1680156103c35780820380516001836020036101000a031916815260200191505b50848103825286518152865160209182019188019080838360005b838110156103f65781810151838201526020016103de565b50505050905090810190601f1680156104235780820380516001836020036101000a031916815260200191505b509c5050505050505050505050505060405180910390f35b34801561044757600080fd5b506104656004803603602081101561045e57600080fd5b5035610c19565b604051808a8152602001806020018060200189815260200188600581111561048957fe5b60ff168152602001878152602001868152602001806020018560038111156104ad57fe5b60ff16815260200184810384528c818151815260200191508051906020019080838360008381101561033657818101518382015260200161031e565b6000821180156104fb57506000548211155b151561056857604080517f08c379a000000000000000000000000000000000000000000000000000000000815260206004820152601860248201527f41747461636b20494420646f6573206e6f742065786973740000000000000000604482015290519081900360640190fd5b60038111156105d857604080517f08c379a000000000000000000000000000000000000000000000000000000000815260206004820152601460248201527f496e76616c6964207374617475732076616c7565000000000000000000000000604482015290519081900360640190fd5b8060038111156105e457fe5b60008381526001602081905260409091206008018054909160ff199091169083600381111561060f57fe5b02179055507f6be18a5036c183d3a0fa6d621a9077e4d3e598f13fe3d39a640a4572bafb29fa8282600381111561064257fe5b6040518083815260200182600381111561065857fe5b60ff1681526020019250505060405180910390a15050565b60005481565b6000805460010190819055604080516101208101825291825260208201899052810187905260608101869052608081018560058111156106b257fe5b60058111156106bd57fe5b81526020810185905260408101849052606081018390526080016000905260008054815260016020818152604090922083518155838301518051919361070893850192910190610e0a565b5060408201518051610724916002840191602090910190610e0a565b5060608201516003820155608082015160048201805460ff1916600183600581111561074c57fe5b021790555060a0820151600582015560c0820151600682015560e08201518051610780916007840191602090910190610e0a565b5061010082015160088201805460ff1916600183600381111561079f57fe5b02179055509050507f2d87a11466d2b32bb7f226e783241828fbd62100d601c1320bfdfb85a918ab8d600054888888604051808581526020018060200180602001848152602001838103835286818151815260200191508051906020019080838360005b8381101561081b578181015183820152602001610803565b50505050905090810190601f1680156108485780820380516001836020036101000a031916815260200191505b50838103825285518152855160209182019187019080838360005b8381101561087b578181015183820152602001610863565b50505050905090810190601f1680156108a85780820380516001836020036101000a031916815260200191505b50965050505050505060405180910390a150505050505050565b600060608060008060008060606000808a1180156108e257506000548a11155b151561094f57604080517f08c379a000000000000000000000000000000000000000000000000000000000815260206004820152601860248201527f41747461636b20494420646f6573206e6f742065786973740000000000000000604482015290519081900360640190fd5b610957610e88565b60008b8152600160208181526040928390208351610120810185528154815281840180548651600296821615610100026000190190911695909504601f81018590048502860185019096528585529094919385840193909290830182828015610a015780601f106109d657610100808354040283529160200191610a01565b820191906000526020600020905b8154815290600101906020018083116109e457829003601f168201915b5050509183525050600282810180546040805160206001841615610100026000190190931694909404601f81018390048302850183019091528084529381019390830182828015610a935780601f10610a6857610100808354040283529160200191610a93565b820191906000526020600020905b815481529060010190602001808311610a7657829003601f168201915b505050918352505060038201546020820152600482015460409091019060ff166005811115610abe57fe5b6005811115610ac957fe5b81526020016005820154815260200160068201548152602001600782018054600181600116156101000203166002900480601f016020809104026020016040519081016040528092919081815260200182805460018160011615610100020316600290048015610b7a5780601f10610b4f57610100808354040283529160200191610b7a565b820191906000526020600020905b815481529060010190602001808311610b5d57829003601f168201915b5050509183525050600882015460209091019060ff166003811115610b9b57fe5b6003811115610ba657fe5b815250509050806000015181602001518260400151836060015184608001516005811115610bd057fe5b8560a001518660c001518760e001518861010001516003811115610bf057fe5b879750869650819150995099509950995099509950995099509950509193959799909294969850565b600160208181526000928352604092839020805481840180548651600296821615610100026000190190911695909504601f81018590048502860185019096528585529094919392909190830182828015610cb55780601f10610c8a57610100808354040283529160200191610cb5565b820191906000526020600020905b815481529060010190602001808311610c9857829003601f168201915b50505060028085018054604080516020601f6000196101006001871615020190941695909504928301859004850281018501909152818152959695945090925090830182828015610d475780601f10610d1c57610100808354040283529160200191610d47565b820191906000526020600020905b815481529060010190602001808311610d2a57829003601f168201915b50505050600383015460048401546005850154600686015460078701805460408051602060026101006001861615026000190190941693909304601f81018490048402820184019092528181529899969860ff909616975093959294929390830182828015610df75780601f10610dcc57610100808354040283529160200191610df7565b820191906000526020600020905b815481529060010190602001808311610dda57829003601f168201915b5050506008909301549192505060ff1689565b828054600181600116156101000203166002900490600052602060002090601f016020900481019282601f10610e4b57805160ff1916838001178555610e78565b82800160010185558215610e78579182015b82811115610e78578251825591602001919060010190610e5d565b50610e84929150610eea565b5090565b610120604051908101604052806000815260200160608152602001606081526020016000815260200160006005811115610ebe57fe5b815260200160008152602001600081526020016060815260200160006003811115610ee557fe5b905290565b610f0491905b80821115610e845760008155600101610ef0565b9056fea165627a7a72305820ce527b0d18697558ca7274a07e7f5a7d405c6703477bfdbeab04988a2c0bb5f20029",
  "source": "pragma solidity ^0.5.0;\r\n\r\ncontract DosAttackLogger {\r\n    uint public attackCount = 0;\r\n    \r\n    enum AttackType { SYNFLOOD, UDPFLOOD, HTTPFLOOD, ICMPFLOOD, SLOWLORIS, OTHER }\r\n    enum AttackStatus { ACTIVE, MITIGATED, INVESTIGATING, CLOSED }\r\n    \r\n    struct DosAttack {\r\n        uint id;\r\n        string sourceIP;\r\n        string targetService;\r\n        uint timestamp;\r\n        AttackType attackType;\r\n        uint trafficVolume; // in Mbps\r\n        uint duration; // in seconds\r\n        string additionalInfo;\r\n        AttackStatus status;\r\n    }\r\n    \r\n    mapping(uint => DosAttack) public attacks;\r\n    \r\n    event AttackLogged(uint id, string sourceIP, string targetService, uint timestamp);\r\n    event AttackStatusUpdated(uint id, AttackStatus newStatus);\r\n    \r\n    constructor() public {\r\n        // Initialize with empty state\r\n    }\r\n    \r\n    function logAttack(\r\n        string memory _sourceIP,\r\n        string memory _targetService,\r\n        uint _timestamp,\r\n        uint _attackType,\r\n        uint _trafficVolume,\r\n        uint _duration,\r\n        string memory _additionalInfo\r\n    ) public {\r\n        attackCount++;\r\n        attacks[attackCount] = DosAttack(\r\n            attackCount,\r\n            _sourceIP,\r\n            _targetService,\r\n            _timestamp,\r\n            AttackType(_attackType),\r\n            _trafficVolume,\r\n            _duration,\r\n            _additionalInfo,\r\n            AttackStatus.ACTIVE\r\n        );\r\n        \r\n        emit AttackLogged(attackCount, _sourceIP, _targetService, _timestamp);\r\n    }\r\n    \r\n    function updateAttackStatus(uint _id, uint _newStatus) public {\r\n        require(_id > 0 && _id <= attackCount, \"Attack ID does not exist\");\r\n        require(_newStatus <= uint(AttackStatus.CLOSED), \"Invalid status value\");\r\n        \r\n        attacks[_id].status = AttackStatus(_newStatus);\r\n        emit AttackStatusUpdated(_id, AttackStatus(_newStatus));\r\n    }\r\n    \r\n    function getAttack(uint _id) public view returns (\r\n        uint id,\r\n        string memory sourceIP,\r\n        string memory targetService,\r\n        uint timestamp,\r\n        uint attackType,\r\n        uint trafficVolume,\r\n        uint duration,\r\n        string memory additionalInfo,\r\n        uint status\r\n    ) {\r\n        require(_id > 0 && _id <= attackCount, \"Attack ID does not exist\");\r\n        DosAttack memory attack = attacks[_id];\r\n        \r\n        return (\r\n            attack.id,\r\n            attack.sourceIP,\r\n            attack.targetService,\r\n            attack.timestamp,\r\n            uint(attack.attackType),\r\n            attack.trafficVolume,\r\n            attack.duration,\r\n            attack.additionalInfo,\r\n            uint(attack.status)\r\n        );\r\n    }\r\n}",
  "sourcePath": "C:/Other files/GitHub/DecentralTodo/contracts/DosAttackLogger.sol",
  "compiler": {
    "name": "solc",
    "version": "0.5.0+commit.1d4f565a.Emscripten.clang"
  },
  "schemaVersion": "3.0.1",
  "updatedAt": "2025-03-31T01:30:49.869Z",
  "devdoc": {
    "methods": {}
  },
  "userdoc": {
    "methods": {}
  }
}