{
  "contractName": "SimplifiedPhishingLogger",
  "abi": [
    {
      "constant": true,
      "inputs": [
        {
          "name": "",
          "type": "uint256"
        }
      ],
      "name": "phishingAttempts",
      "outputs": [
        {
          "name": "id",
          "type": "uint256"
        },
        {
          "name": "sourceEmail",
          "type": "string"
        },
        {
          "name": "targetDomain",
          "type": "string"
        },
        {
          "name": "timestamp",
          "type": "uint256"
        },
        {
          "name": "phishingType",
          "type": "uint8"
        },
        {
          "name": "severity",
          "type": "uint256"
        },
        {
          "name": "contentHash",
          "type": "string"
        },
        {
          "name": "status",
          "type": "uint8"
        }
      ],
      "payable": false,
      "stateMutability": "view",
      "type": "function",
      "signature": "0x0f6f1283"
    },
    {
      "constant": true,
      "inputs": [],
      "name": "attemptCount",
      "outputs": [
        {
          "name": "",
          "type": "uint256"
        }
      ],
      "payable": false,
      "stateMutability": "view",
      "type": "function",
      "signature": "0x7a154ef4"
    },
    {
      "inputs": [],
      "payable": false,
      "stateMutability": "nonpayable",
      "type": "constructor",
      "signature": "constructor"
    },
    {
      "anonymous": false,
      "inputs": [
        {
          "indexed": false,
          "name": "id",
          "type": "uint256"
        },
        {
          "indexed": false,
          "name": "sourceEmail",
          "type": "string"
        },
        {
          "indexed": false,
          "name": "targetDomain",
          "type": "string"
        },
        {
          "indexed": false,
          "name": "timestamp",
          "type": "uint256"
        }
      ],
      "name": "AttemptLogged",
      "type": "event",
      "signature": "0x8add6de1cd5cf7d1ca4834247e0a4b1d3e7592fe60a330ed338fbbcca1c21c42"
    },
    {
      "anonymous": false,
      "inputs": [
        {
          "indexed": false,
          "name": "id",
          "type": "uint256"
        },
        {
          "indexed": false,
          "name": "newStatus",
          "type": "uint8"
        }
      ],
      "name": "AttemptStatusUpdated",
      "type": "event",
      "signature": "0xf931af955362f1f3be7af48ea70f6b099830a4087e45073d51a87f4e0df446b0"
    },
    {
      "constant": false,
      "inputs": [
        {
          "name": "_sourceEmail",
          "type": "string"
        },
        {
          "name": "_targetDomain",
          "type": "string"
        },
        {
          "name": "_phishingType",
          "type": "uint256"
        },
        {
          "name": "_severity",
          "type": "uint256"
        },
        {
          "name": "_contentHash",
          "type": "string"
        }
      ],
      "name": "logPhishingAttempt",
      "outputs": [],
      "payable": false,
      "stateMutability": "nonpayable",
      "type": "function",
      "signature": "0x1b1a6420"
    },
    {
      "constant": false,
      "inputs": [
        {
          "name": "_id",
          "type": "uint256"
        },
        {
          "name": "_newStatus",
          "type": "uint256"
        }
      ],
      "name": "updateAttemptStatus",
      "outputs": [],
      "payable": false,
      "stateMutability": "nonpayable",
      "type": "function",
      "signature": "0x84089401"
    },
    {
      "constant": true,
      "inputs": [
        {
          "name": "_id",
          "type": "uint256"
        }
      ],
      "name": "getPhishingAttempt",
      "outputs": [
        {
          "name": "id",
          "type": "uint256"
        },
        {
          "name": "sourceEmail",
          "type": "string"
        },
        {
          "name": "targetDomain",
          "type": "string"
        },
        {
          "name": "timestamp",
          "type": "uint256"
        },
        {
          "name": "phishingType",
          "type": "uint256"
        },
        {
          "name": "severity",
          "type": "uint256"
        },
        {
          "name": "contentHash",
          "type": "string"
        },
        {
          "name": "status",
          "type": "uint256"
        }
      ],
      "payable": false,
      "stateMutability": "view",
      "type": "function",
      "signature": "0x55e761d8"
    }
  ],
  "bytecode": "0x60806040526000805534801561001457600080fd5b50610e13806100246000396000f3fe60806040526004361061006c5763ffffffff7c01000000000000000000000000000000000000000000000000000000006000350416630f6f128381146100715780631b1a64201461021e57806355e761d8146103ed5780637a154ef41461047957806384089401146104a0575b600080fd5b34801561007d57600080fd5b5061009b6004803603602081101561009457600080fd5b50356104d0565b6040518089815260200180602001806020018881526020018760058111156100bf57fe5b60ff168152602001868152602001806020018560038111156100dd57fe5b60ff16815260200184810384528b818151815260200191508051906020019080838360005b8381101561011a578181015183820152602001610102565b50505050905090810190601f1680156101475780820380516001836020036101000a031916815260200191505b5084810383528a5181528a516020918201918c019080838360005b8381101561017a578181015183820152602001610162565b50505050905090810190601f1680156101a75780820380516001836020036101000a031916815260200191505b50848103825286518152865160209182019188019080838360005b838110156101da5781810151838201526020016101c2565b50505050905090810190601f1680156102075780820380516001836020036101000a031916815260200191505b509b50505050505050505050505060405180910390f35b34801561022a57600080fd5b506103eb600480360360a081101561024157600080fd5b81019060208101813564010000000081111561025c57600080fd5b82018360208201111561026e57600080fd5b8035906020019184600183028401116401000000008311171561029057600080fd5b91908080601f01602080910402602001604051908101604052809392919081815260200183838082843760009201919091525092959493602081019350359150506401000000008111156102e357600080fd5b8201836020820111156102f557600080fd5b8035906020019184600183028401116401000000008311171561031757600080fd5b91908080601f016020809104026020016040519081016040528093929190818152602001838380828437600092019190915250929584359560208601359591945092506060810191506040013564010000000081111561037657600080fd5b82018360208201111561038857600080fd5b803590602001918460018302840111640100000000831117156103aa57600080fd5b91908080601f0160208091040260200160405190810160405280939291908181526020018383808284376000920191909152509295506106ba945050505050565b005b3480156103f957600080fd5b506104176004803603602081101561041057600080fd5b503561095d565b6040518089815260200180602001806020018881526020018781526020018681526020018060200185815260200184810384528b818151815260200191508051906020019080838360008381101561011a578181015183820152602001610102565b34801561048557600080fd5b5061048e610bed565b60408051918252519081900360200190f35b3480156104ac57600080fd5b506103eb600480360360408110156104c357600080fd5b5080359060200135610bf3565b600160208181526000928352604092839020805481840180548651600296821615610100026000190190911695909504601f8101859004850286018501909652858552909491939290919083018282801561056c5780601f106105415761010080835404028352916020019161056c565b820191906000526020600020905b81548152906001019060200180831161054f57829003601f168201915b50505060028085018054604080516020601f60001961010060018716150201909416959095049283018590048502810185019091528181529596959450909250908301828280156105fe5780601f106105d3576101008083540402835291602001916105fe565b820191906000526020600020905b8154815290600101906020018083116105e157829003601f168201915b505050600384015460048501546005860154600687018054604080516020601f600260001960018716156101000201909516949094049384018190048102820181019092528281529899959860ff909516975092955090918301828280156106a75780601f1061067c576101008083540402835291602001916106a7565b820191906000526020600020905b81548152906001019060200180831161068a57829003601f168201915b5050506007909301549192505060ff1688565b600182101580156106cc575060058211155b1515610722576040805160e560020a62461bcd02815260206004820181905260248201527f5365766572697479206d757374206265206265747765656e203120616e642035604482015290519081900360640190fd5b600080546001019081905560408051610100810182529182526020820187905281018590524260608201819052906080810185600581111561076057fe5b600581111561076b57fe5b81526020810185905260408101849052606001600090526000805481526001602081815260409092208351815583830151805191936107af93850192910190610d4c565b50604082015180516107cb916002840191602090910190610d4c565b5060608201516003820155608082015160048201805460ff191660018360058111156107f357fe5b021790555060a0820151600582015560c0820151805161081d916006840191602090910190610d4c565b5060e082015160078201805460ff1916600183600381111561083b57fe5b02179055509050507f8add6de1cd5cf7d1ca4834247e0a4b1d3e7592fe60a330ed338fbbcca1c21c42600054878784604051808581526020018060200180602001848152602001838103835286818151815260200191508051906020019080838360005b838110156108b757818101518382015260200161089f565b50505050905090810190601f1680156108e45780820380516001836020036101000a031916815260200191505b50838103825285518152855160209182019187019080838360005b838110156109175781810151838201526020016108ff565b50505050905090810190601f1680156109445780820380516001836020036101000a031916815260200191505b50965050505050505060405180910390a1505050505050565b6000606080600080600060606000808911801561097c57506000548911155b15156109d2576040805160e560020a62461bcd02815260206004820152601960248201527f417474656d707420494420646f6573206e6f7420657869737400000000000000604482015290519081900360640190fd5b6000898152600160208190526040909120805460038201546004830154929391929184019160028501919060ff166005811115610a0b57fe5b60058601546007870154600688019060ff166003811115610a2857fe5b8654604080516020601f60026000196101006001881615020190951694909404938401819004810282018101909252828152918991830182828015610aae5780601f10610a8357610100808354040283529160200191610aae565b820191906000526020600020905b815481529060010190602001808311610a9157829003601f168201915b5050895460408051602060026001851615610100026000190190941693909304601f8101849004840282018401909252818152959c508b945092508401905082828015610b3c5780601f10610b1157610100808354040283529160200191610b3c565b820191906000526020600020905b815481529060010190602001808311610b1f57829003601f168201915b5050855460408051602060026001851615610100026000190190941693909304601f8101849004840282018401909252818152959b5087945092508401905082828015610bca5780601f10610b9f57610100808354040283529160200191610bca565b820191906000526020600020905b815481529060010190602001808311610bad57829003601f168201915b505050505091509850985098509850985098509850985050919395975091939597565b60005481565b600082118015610c0557506000548211155b1515610c5b576040805160e560020a62461bcd02815260206004820152601960248201527f417474656d707420494420646f6573206e6f7420657869737400000000000000604482015290519081900360640190fd5b6003811115610cb4576040805160e560020a62461bcd02815260206004820152601460248201527f496e76616c6964207374617475732076616c7565000000000000000000000000604482015290519081900360640190fd5b806003811115610cc057fe5b60008381526001602081905260409091206007018054909160ff1990911690836003811115610ceb57fe5b02179055507ff931af955362f1f3be7af48ea70f6b099830a4087e45073d51a87f4e0df446b082826003811115610d1e57fe5b60405180838152602001826003811115610d3457fe5b60ff1681526020019250505060405180910390a15050565b828054600181600116156101000203166002900490600052602060002090601f016020900481019282601f10610d8d57805160ff1916838001178555610dba565b82800160010185558215610dba579182015b82811115610dba578251825591602001919060010190610d9f565b50610dc6929150610dca565b5090565b610de491905b80821115610dc65760008155600101610dd0565b9056fea165627a7a723058202981fb33e43fe16319d84d7d621c77db42c709be0b0571e7a0d51983b3a6f1940029",
  "source": "pragma solidity ^0.5.0;\r\n\r\ncontract SimplifiedPhishingLogger {\r\n    uint public attemptCount = 0;\r\n    \r\n    enum PhishingType { CREDENTIAL_THEFT, FINANCIAL_SCAM, DATA_THEFT, MALWARE_DISTRIBUTION, SOCIAL_ENGINEERING, OTHER }\r\n    enum PhishingStatus { ACTIVE, MITIGATED, INVESTIGATING, CLOSED }\r\n    \r\n    struct PhishingAttempt {\r\n        uint id;\r\n        string sourceEmail;\r\n        string targetDomain;\r\n        uint timestamp;\r\n        PhishingType phishingType; \r\n        uint severity;\r\n        string contentHash;\r\n        PhishingStatus status;\r\n    }\r\n    \r\n    mapping(uint => PhishingAttempt) public phishingAttempts;\r\n    \r\n    event AttemptLogged(uint id, string sourceEmail, string targetDomain, uint timestamp);\r\n    event AttemptStatusUpdated(uint id, PhishingStatus newStatus);\r\n    \r\n    constructor() public {\r\n        // Initialize with empty state\r\n    }\r\n    \r\n    function logPhishingAttempt(\r\n        string memory _sourceEmail,\r\n        string memory _targetDomain,\r\n        uint _phishingType,\r\n        uint _severity,\r\n        string memory _contentHash\r\n    ) public {\r\n        require(_severity >= 1 && _severity <= 5, \"Severity must be between 1 and 5\");\r\n        \r\n        attemptCount++;\r\n        uint timestamp = now; // Current block timestamp\r\n        \r\n        phishingAttempts[attemptCount] = PhishingAttempt(\r\n            attemptCount,\r\n            _sourceEmail,\r\n            _targetDomain,\r\n            timestamp,\r\n            PhishingType(_phishingType),\r\n            _severity,\r\n            _contentHash,\r\n            PhishingStatus.ACTIVE\r\n        );\r\n        \r\n        emit AttemptLogged(attemptCount, _sourceEmail, _targetDomain, timestamp);\r\n    }\r\n    \r\n    function updateAttemptStatus(uint _id, uint _newStatus) public {\r\n        require(_id > 0 && _id <= attemptCount, \"Attempt ID does not exist\");\r\n        require(_newStatus <= uint(PhishingStatus.CLOSED), \"Invalid status value\");\r\n        \r\n        phishingAttempts[_id].status = PhishingStatus(_newStatus);\r\n        emit AttemptStatusUpdated(_id, PhishingStatus(_newStatus));\r\n    }\r\n    \r\n    function getPhishingAttempt(uint _id) public view returns (\r\n        uint id,\r\n        string memory sourceEmail,\r\n        string memory targetDomain,\r\n        uint timestamp,\r\n        uint phishingType,\r\n        uint severity,\r\n        string memory contentHash,\r\n        uint status\r\n    ) {\r\n        require(_id > 0 && _id <= attemptCount, \"Attempt ID does not exist\");\r\n        PhishingAttempt storage attempt = phishingAttempts[_id];\r\n        \r\n        return (\r\n            attempt.id,\r\n            attempt.sourceEmail,\r\n            attempt.targetDomain,\r\n            attempt.timestamp,\r\n            uint(attempt.phishingType),\r\n            attempt.severity,\r\n            attempt.contentHash,\r\n            uint(attempt.status)\r\n        );\r\n    }\r\n}",
  "sourcePath": "C:/Other files/GitHub/DecentralTodo/contracts/PhishingAttackLogger.sol",
  "compiler": {
    "name": "solc",
    "version": "0.5.0+commit.1d4f565a.Emscripten.clang"
  },
  "schemaVersion": "3.0.1",
  "updatedAt": "2025-04-12T17:53:18.259Z",
  "devdoc": {
    "methods": {}
  },
  "userdoc": {
    "methods": {}
  }
}